:1000000002308A00282A0000FF00030E8301A100AD
:100010000A08A0008A010408A2007708A300780853
:10002000A4007908A5007A08A600831383128C30F7
:100030008400801E1D288C1A2E2822088400230884
:10004000F7002408F8002508F9002608FA0020081F
:100050008A00210E8300FF0E7F0E09008A110A120A
:10006000D72820300317A2006730F700F70B362897
:100070003928A20B40280313A801F8014D280317C3
:1000800003138C1A4528031734281808A8001A08E7
:10009000F800A81C4D28181218160800031720088D
:1000A000A5001F08A4002508FA002408A40A0319C3
:1000B000A50A840083137A1883170008A600A801F4
:1000C000A70101302102F7002208FA000030031CCA
:1000D0000130FA027708F80028087A02031CC328C6
:1000E000031D7628780827020318C328A9012908C8
:1000F000073C031CBC28A61B9B280310A60D250843
:10010000FA00240884008313251883170008AA0026
:100110002908073CAB002A08F7002B08F800031950
:1001200095280310F70CF80B9128771C99282614B2
:100130009A282610BA280310A60D2508FA002408CC
:1001400084008313251883170008AA002908073C98
:10015000AB002A08F7002B08F8000319B328031096
:10016000F70CF80BAF28771CB7282614B8282610F0
:100170002308A606A90A7728A40A0319A50AA70A2C
:100180000319A80A6128A9012908073C031CD328E0
:10019000A61BCD280310A60DD1280310A60D2308F9
:1001A000A606A90AC4282608F80003130800EE01D1
:1001B000312078088316A000831231207808831636
:1001C000A1002108113C031D482983123120780821
:1001D0008316A2008312312078088316A3008312AD
:1001E000312078088316A4008312EB0101308316B6
:1001F000240783126B020318162905306B07A03EF3
:10020000840083130317A1010408A0002110831B9D
:1002100021140313312003172008840083132118AD
:100220008317780880000313EB0AF628063083163C
:1002300024078312EC00ED0105306B07A03E84001B
:100240008313000803179E00A001A0309F00A201A5
:1002500003136C080317A1005530A30003134E20AD
:10026000780803171E020319392901300313ED0022
:100270000317831603132108113C031D4829831219
:10028000ED0803194529831648290130EE0083162D
:1002900083128C128A110A121D28113084008317D0
:1002A0000008031961290130F800F701F70B5629FE
:1002B000F80B55294A30F700F70B5C295F29800BB2
:1002C00053290800EE011130A90083166408831237
:1002D000AA00FF30AB00831665088312AC008316BA
:1002E00066088312AD00831667088312AE000530DE
:1002F00083166607E800EA012930E900EC01680886
:10030000EB007512750887008312071683166A08BA
:10031000EE006908ED008312A7018B1BA7178B1352
:1003200083166E0883120317A000831603136D084B
:10033000831203179F00831603136C08831203179D
:10034000A200831603136B0883120317A100553014
:10035000A30003134E20A71B8B1778088316EF000A
:1003600083120317900183160313EC08031DC029A1
:100370006B088312031710020318D5298316031381
:10038000831203171008831603136907840083136D
:100390006A188317000883120317910003130C1EB9
:1003A000CF2999000317900AB32903130C1283165F
:1003B0006F0883120C1EDA2999000C1EDD2901300A
:1003C0000317910003134D217512750883168700DA
:1003D00083120712080083166008E4006108E50034
:1003E0006208E6006308E700831262210A300317FF
:1003F000910003134D21EE08031D0D2AED0803198A
:100400000C2A83166008E4006108E5006208E60033
:100410006308E70083126221FB298316600820022B
:10042000031D142A0030152A0130E400220B1A2A79
:1004300000301B2A0130E40461082302031D222A34
:100440000030232A01306404031DEC2983120800C4
:1004500003081F398300A801193083169900A630BC
:100460009800903083129800FF30F50083161F1417
:100470009F141F159F1183130912831290010030DE
:10048000F8009200003083169200F0308312970536
:100490009D05C0308B041A0883168C160130831218
:1004A000EF00F000F100FF3083168500880085150D
:1004B0008312851D5E2A0130F2005F2AF201831645
:1004C00005168312051E672A0130F300682AF3011E
:1004D000831685168312851E702A0130F400712A56
:1004E000F401831608148312081CAF2A831608141B
:1004F00083120818762A0A300317910003134D213E
:10050000F20803198C2A22308316E0000130E10042
:10051000E200E3018312EB210A3003179100031379
:100520004D21F30803199D2A33308316E000013072
:10053000E100E200E3018312EB210A30031791008E
:1005400003134D21F4080319AE2A44308316E0004A
:100550000130E100E200E3018312EB218F2C8316CE
:1005600088148312881CF02A831688148312881832
:10057000B42A0A300317910003134D21F20803191E
:10058000CB2A22308316E0000230E1000130E20085
:10059000E3018312EB210A300317910003134D216D
:1005A000F3080319DD2A33308316E0000230E1003E
:1005B0000130E200E3018312EB210A3003179100BE
:1005C00003134D21F4080319EF2A44308316E00089
:1005D0000230E1000130E200E3018312EB218F2CB5
:1005E000831608158312081D312B831608158312F4
:1005F0000819F52A0A300317910003134D21F20858
:1006000003190C2B22308316E0000330E100013087
:10061000E200E3018312EB210A3003179100031378
:100620004D21F30803191E2B33308316E0000330ED
:10063000E1000130E200E3018312EB210A300317ED
:10064000910003134D21F4080319302B4430831615
:10065000E0000330E1000130E200E3018312EB210E
:100660008F2C831688158312881D722B831688158C
:1006700083128819362B0A300317910003134D217A
:10068000F20803194D2B22308316E0000430E100FC
:100690000130E200E3018312EB210A3003179100DD
:1006A00003134D21F30803195F2B33308316E00049
:1006B0000430E1000130E200E3018312EB210A3053
:1006C0000317910003134D21F4080319712B4430D3
:1006D0008316E0000430E1000130E200E301831200
:1006E000EB218F2C831608168312081EB32B83165A
:1006F00008168312081A772B0A3003179100031388
:100700004D21F20803198E2B22308316E0000530AC
:10071000E1000130E200E3018312EB210A3003170C
:10072000910003134D21F3080319A02B33308316D6
:10073000E0000530E1000130E200E3018312EB212B
:100740000A300317910003134D21F4080319B22B4B
:1007500044308316E0000530E1000130E200E3019F
:100760008312EB218F2C831688168312881EF42B9C
:10077000831688168312881AB82B0A300317910043
:1007800003134D21F2080319CF2B22308316E0000A
:100790000630E1000130E200E3018312EB210A3070
:1007A0000317910003134D21F3080319E12B333094
:1007B0008316E0000630E1000130E200E30183121D
:1007C000EB210A300317910003134D21F40803199C
:1007D000F32B44308316E0000630E1000130E200E4
:1007E000E3018312EB218F2C831608178312081F55
:1007F000352C831608178312081BF92B0A300317B0
:10080000910003134D21F2080319102C2230831696
:10081000E0000730E1000130E200E3018312EB2148
:100820000A300317910003134D21F3080319222CFA
:1008300033308316E0000730E1000130E200E301CD
:100840008312EB210A300317910003134D21F408A2
:100850000319342C44308316E0000730E1000130E6
:10086000E200E3018312EB218F2C83168817831299
:10087000881F8F2C831688178312881B3A2C0A3006
:100880000317910003134D21F20803195B2CEF0AA3
:100890006F080B3C031D4E2C0130EF0022308316F5
:1008A000E0000830E1000130E20083126F08831697
:1008B000E3008312EB210A300317910003134D214B
:1008C000F3080319752CF00A70080B3C031D6A2C01
:1008D0000130F00033308316E0000830E1000130D1
:1008E000E2007008E3008312EB210A300317910045
:1008F00003134D21F40803198F2CF10A71080B3CE6
:10090000031D842C0130F10044308316E0000830D0
:10091000E1000130E2007108E3008312EB2183164D
:04092000572A6300EF
:02400E00393B3C
:00000001FF
;PIC16F877
;CRC=8B2A  CREATED="20-May-21 01:06"
