:1000000003308A00062B0000FF00030E8301A100CD
:100010000A08A0008A010408A2007708A300780853
:10002000A4007908A5007A08A600831383128C30F7
:100030008400801E1D288C1A2E2822088400230884
:10004000F7002408F8002508F9002608FA0020081F
:100050008A00210E8300FF0E7F0E09008A110A120A
:10006000D72820300317A6006730F700F70B362893
:100070003928A60B40280313A801F8014D280317BF
:1000800003138C1A4528031734281808A8001A08E7
:10009000F800A81C4D281812181608000317240889
:1000A000A9002308A8002908FA002808A80A0319AB
:1000B000A90A840083137A1883170008AA00AC01E8
:1000C000AB0101302502F7002608FA000030031CBE
:1000D0000130FA027708F8002C087A02031CC328C2
:1000E000031D762878082B020318C328AD012D08BC
:1000F000073C031CBC28AA1B9B280310AA0D290837
:10010000FA00280884008313291883170008AE001A
:100110002D08073CAF002E08F7002F08F800031940
:1001200095280310F70CF80B9128771C99282A14AE
:100130009A282A10BA280310AA0D2908FA002808BC
:1001400084008313291883170008AE002D08073C8C
:10015000AF002E08F7002F08F8000319B32803108A
:10016000F70CF80BAF28771CB7282A14B8282A10E8
:100170002708AA06AD0A7728A80A0319A90AAB0A14
:100180000319AC0A6128AD012D08073C031CD328D4
:10019000AA1BCD280310AA0DD1280310AA0D2708E9
:1001A000AA06AD0AC4282A08F80003130800EF01C4
:1001B000312078088316A000831231207808831636
:1001C000A1002108333C031D5429831231207808F3
:1001D0008316A2008312312078088316A3008312AD
:1001E000312078088316A4008312EB0101308316B6
:1001F000240783126B020318162905306B07A03EF3
:10020000840083130317A5010408A4002510831B91
:1002100025140313312003172408840083132518A1
:100220008317780880000313EB0AF628063083163C
:1002300024078312ED00EE0105306B07A03E840019
:10024000831300080317A200A401A030A300A60195
:1002500003136D080317A5005530A70003134E20A4
:100260007808031722020319392901300313EE001D
:100270000317831603132108333C031D48298312F7
:10028000EE0803194529831648290130EF0083162B
:100290002308073C031D54298312EE080319522931
:1002A00083165429F101831683128C128A110A12C3
:1002B0001D28163084008317000803196D290130AA
:1002C000F800F701F70B6229F80B61294A30F700B3
:1002D000F70B68296B29800B5F290800EF01831653
:1002E00068088312A9001130AA000130AB00831600
:1002F00069088312AC0083166A088312AD00831666
:100300006B088312AE00053083166A07EC00EE011D
:100310002930ED00831203179101831603136C0833
:10032000831203179000721272088316031387005A
:100330008312071683166E08831203179300831621
:1003400003136D088312031792000313A7018B1B7D
:10035000A7178B1303171308A4001208A300110892
:10036000A6001008A5005530A70003134E20A71BB8
:100370008B1778088316EF008312031794019108F6
:10038000031DC629100814020318D929140883165E
:1003900003136D07840083136E18831700088312FC
:1003A0000317950003130C1ED32999000317940A11
:1003B000BF2903130C1283166F0883120C1EDE294B
:1003C00099000C1EE12901300317960003135921EF
:1003D0007212720883168700831207120800E9015F
:1003E0006908053C031C122AEA016A08073C031C41
:1003F000102A70080317960003135921EC0A6C08A1
:10040000083C0319EC01E0306C07840083130008FA
:100410008316E8008801680883128800EA0AF52933
:10042000E90AF0298A110A125E2BE9016908053CE4
:10043000031C3A2AEA016A08073C031C382A7008A0
:100440000317960003135921EC036C08FF3C031DAE
:100450002B2A0730EC00E0306C078400831300087F
:100460008316E8008801680883128800EA0A1B2ABC
:10047000E90A162A8A110A12702BE9016908023C5E
:10048000031C602AEA016A08073C031C5E2A700804
:100490000317960003135921EC0A6C08083C031952
:1004A000EC01E0306C078400831300088316E80039
:1004B0008801680883128800EA0A432AE90A3E2A6A
:1004C0008A110A12822BE9016908023C031C882A5E
:1004D000EA016A08073C031C862A70080317960085
:1004E00003135921EC036C08FF3C031D792A0730E4
:1004F000EC00E0306C078400831300088316E800EA
:100500008801680883128800EA0A692AE90A642ACD
:100510008A110A12942B0130F100F1080319A62A5E
:1005200070080317960003135921EC0A6C08083C65
:100530000319EC01E0306C07840083130008831674
:10054000E80088016808831288008D2A33308316FA
:10055000E8000730E9000130EA00EB0183126E2168
:100560008A110A12A62B0130F100F1080319D02AD2
:1005700070080317960003135921EC036C08FF3C25
:10058000031DC42A0730EC00E0306C07840083139D
:1005900000088316E8008801680883128800B52ADD
:1005A00033308316E8000730E9000130EA00EB0140
:1005B00083126E218A110A12B82BF701F8018316F3
:1005C000680803106918F707F70CF80CE918F70723
:1005D000F70CF80C6919F707F70CF80CE919F7078D
:1005E000F70CF80C691AF707F70CF80CE91AF7077B
:1005F000F70CF80C691BF707F70CF80CE91BF70769
:10060000F70CF80C83128A110A12E12B03081F3928
:100610008300A801193083169900A6309800903005
:10062000831298000A30F000FF30F20083161F1486
:100630009F141F159F1183130130E0000330E10068
:100640000230E2000630E3000430E4000C30E50044
:100650000830E6000930E700721272088700831242
:100660000712C0308B041A0883168C16880165089F
:10067000831288000530EC00F101721272088316B3
:10068000870083120712EF080319E82B0130831645
:100690002302F83E0318E62B083E8312EA2B14309F
:1006A000031796000313592133308316E8000130F5
:1006B000E900EA00EB0183126E21EF298316E62B95
:1006C0001430031796000313592133308316E800C2
:1006D0000230E9000130EA00EB0183126E21152A95
:1006E0008316E62B14300317960003135921333079
:1006F0008316E8000330E9000130EA00EB018312C1
:100700006E213D2A8316E62B14300317960003133F
:10071000592133308316E8000430E9000130EA0043
:10072000EB0183126E21632A8316E62B1430031724
:1007300096000313592133308316E8000530E90091
:100740000130EA00EB0183126E218B2A8316E62B1F
:100750001430031796000313592133308316E80031
:100760000630E9000130EA00EB0183126E21B32A62
:100770008316E62B143003179600031359213330E8
:100780008316E8000730E9000130EA00EB0183122C
:100790006E218316E62B143003179600031359219C
:1007A00033308316E8000830E9000130EA00EB013D
:1007B00083126E2183162508E8000A30E9008312AF
:1007C000DD2A7808F0008316E62B83168312EF01EA
:1007D0003D2B63000A148A140A1182074F2B602BE9
:0C07E000722B842B962BA82BBA2BCB2B52
:02400E00393B3C
:00000001FF
;PIC16F877
;CRC=F34E  CREATED="20-May-21 01:08"
